:020000040000fa
:080000000010040000000000e4
:020000040000fa
:040008006011000083
:020000040000fa
:04000c00601100007f
:020000040000fa
:04001000601100007b
:020000040000fa
:040014006011000077
:020000040000fa
:040018006011000073
:020000040000fa
:04001c00601100006f
:020000040000fa
:04002000601100006b
:020000040000fa
:040024006011000067
:020000040000fa
:040028006011000063
:020000040000fa
:04002c00601100005f
:020000040000fa
:04003000601100005b
:020000040000fa
:04003400306d00002b
:020000040000fa
:040038006011000053
:020000040000fa
:04003c00601100004f
:020000040000fa
:04004000601100004b
:020000040000fa
:040044004e6d0000fd
:020000040000fa
:04004800526d0000f5
:020000040000fa
:04004c00601100003f
:020000040000fa
:0400500092600000ba
:020000040000fa
:0400540094730000a1
:020000040000fa
:040058006e730000c3
:020000040000fa
:04005c00a476000086
:020000040000fa
:04006000601100002b
:020000040000fa
:040064006011000027
:020000040000fa
:040068008c3a0000ce
:020000040000fa
:04006c00601100001f
:020000040000fa
:04007000601100001b
:020000040000fa
:040074006011000017
:020000040000fa
:040078006011000013
:020000040000fa
:04007c00601100000f
:020000040000fa
:04008000601100000b
:020000040000fa
:040084006011000007
:020000040000fa
:040088006011000003
:020000040000fa
:04008c0060110000ff
:020000040000fa
:0400900060110000fb
:020000040000fa
:0400940060110000f7
:020000040000fa
:0400980060110000f3
:020000040000fa
:04009c0060110000ef
:020000040000fa
:0400a000ec710000ff
:020000040000fa
:0400a400c671000021
:020000040000fa
:0400a80060110000e3
:020000040000fa
:0400ac009278000046
:020000040000fa
:0400b00060110000db
:020000040000fa
:0400b40060110000d7
:020000040000fa
:0400b80060110000d3
:020000040000fa
:0400bc004c6e000086
:020000040000fa
:0400c00060110000cb
:020000040000fa
:0400c40060110000c7
:020000040000fa
:0400c80060110000c3
:020000040000fa
:0400cc0060110000bf
:020000040000fa
:0400d00060110000bb
:020000040000fa
:0400d40060110000b7
:020000040000fa
:0400d80060110000b3
:020000040000fa
:0400dc009666000024
:020000040000fa
:0400e00060110000ab
:020000040000fa
:0400e40060110000a7
:020000040000fa
:0400e80060110000a3
:020000040000fa
:0400ec007657000043
:020000040000fa
:0400f000601100009b
:020000040000fa
:0400f4006011000097
:020000040000fa
:0400f8006011000093
:020000040000fa
:0400fc00601100008f
:020000040000fa
:04010000601100008a
:020000040000fa
:040104006011000086
:020000040000fa
:040108006011000082
:020000040000fa
:04010c00601100007e
:020000040000fa
:04011000601100007a
:020000040000fa
:040114006011000076
:020000040000fa
:040118006011000072
:020000040000fa
:04011c00601100006e
:020000040000fa
:04012000601100006a
:020000040000fa
:040124006011000066
:020000040000fa
:040128006011000062
:020000040000fa
:04012c00601100005e
:020000040000fa
:04013000601100005a
:020000040000fa
:040134006011000056
:020000040000fa
:040138006011000052
:020000040000fa
:04013c00601100004e
:020000040000fa
:04014000601100004a
:020000040000fa
:040144006011000046
:020000040000fa
:040148006011000042
:020000040000fa
:04014c00601100003e
:020000040000fa
:04015000601100003a
:020000040000fa
:040154006011000036
:020000040000fa
:040158006011000032
:020000040000fa
:04015c00601100002e
:020000040000fa
:04016000601100002a
:020000040000fa
:040164006011000026
:020000040000fa
:040168006011000022
:020000040000fa
:04016c00601100001e
:020000040000fa
:04017000b87400005f
:020000040000fa
:040174009274000081
:020000040000fa
:040178006011000012
:020000040000fa
:04017c00601100000e
:020000040000fa
:04018000e87900001a
:020000040000fa
:040184006011000006
:020000040000fa
:04018800c8020000a9
:020000040000fa
:04018c00a2020000cb
:020000040000fa
:0401900060110000fa
:020000040000fa
:040194009878000057
:020000040000fa
:0401980060110000f2
:020000040000fa
:04019c0060110000ee
:020000040000fa
:040208006011000081
:020000040000fa
:04020c00601100007d
:020000040000fa
:040210006011000079
:020000040000fa
:040214006011000075
:020000040000fa
:040218006011000071
:020000040000fa
:04021c00601100006d
:020000040000fa
:040220006011000069
:020000040000fa
:040224006011000065
:020000040000fa
:040228006011000061
:020000040000fa
:04022c00601100005d
:020000040000fa
:040230006011000059
:020000040000fa
:040234006011000055
:020000040000fa
:040238006011000051
:020000040000fa
:04023c00601100004d
:020000040000fa
:040240006011000049
:020000040000fa
:040244006011000045
:020000040000fa
:040248006011000041
:020000040000fa
:04024c00601100003d
:020000040000fa
:040250006011000039
:020000040000fa
:040254006011000035
:020000040000fa
:040258006011000031
:020000040000fa
:04025c00601100002d
:020000040000fa
:040260006011000029
:020000040000fa
:040264006011000025
:020000040000fa
:040268006011000021
:020000040000fa
:04026c00601100001d
:020000040000fa
:040270006011000019
:020000040000fa
:040274006011000015
:020000040000fa
:040278006011000011
:020000040000fa
:04027c00601100000d
:020000040000fa
:040280006011000009
:020000040000fa
:040284006011000005
:020000040000fa
:040288006011000001
:020000040000fa
:04028c0060110000fd
:020000040000fa
:0402900060110000f9
:020000040000fa
:0402940060110000f5
:020000040000fa
:0402980060110000f1
:020000040000fa
:04029c0060110000ed
:020000040000fa
:0402a00060110000e9
:020000040000fa
:0402a40060110000e5
:020000040000fa
:0402a80060110000e1
:020000040000fa
:0402ac0060110000dd
:020000040000fa
:0402b00060110000d9
:020000040000fa
:0402b40060110000d5
:020000040000fa
:0402b80060110000d1
:020000040000fa
:0402bc0060110000cd
:020000040000fa
:0402c00060110000c9
:020000040000fa
:0402c40060110000c5
:020000040000fa
:0402c80060110000c1
:020000040000fa
:0402cc0060110000bd
:020000040000fa
:0402d00060110000b9
:020000040000fa
:0402d40060110000b5
:020000040000fa
:0402d80060110000b1
:020000040000fa
:0402dc0060110000ad
:020000040000fa
:0402e00060110000a9
:020000040000fa
:0402e40060110000a5
:020000040000fa
:0402e80060110000a1
:020000040000fa
:0402ec00601100009d
:020000040000fa
:0402f0006011000099
:020000040000fa
:0402f4006011000095
:020000040000fa
:0402f8006011000091
:020000040000fa
:0402fc00601100008d
:020000040000fa
:040300006011000088
:020000040000fa
:040304006011000084
:020000040000fa
:040308006011000080
:020000040000fa
:04030c00601100007c
:020000040000fa
:040310006011000078
:020000040000fa
:040314006011000074
:020000040000fa
:040318006011000070
:020000040000fa
:04031c00601100006c
:020000040000fa
:040320006011000068
:020000040000fa
:040324006011000064
:020000040000fa
:040328006011000060
:020000040000fa
:04032c00601100005c
:020000040000fa
:040330006011000058
:020000040000fa
:040334006011000054
:020000040000fa
:040338006011000050
:020000040000fa
:04033c00601100004c
:020000040000fa
:040340006011000048
:020000040000fa
:040344006011000044
:020000040000fa
:040348006011000040
:020000040000fa
:04034c00601100003c
:020000040000fa
:040350006011000038
:020000040000fa
:040354006011000034
:020000040000fa
:040358006011000030
:020000040000fa
:04035c00601100002c
:020000040000fa
:040360006011000028
:020000040000fa
:040364006011000024
:020000040000fa
:040368006011000020
:020000040000fa
:04036c00601100001c
:020000040000fa
:040370006011000018
:020000040000fa
:040374006011000014
:020000040000fa
:040378006011000010
:020000040000fa
:04037c00601100000c
:020000040000fa
:040380006011000008
:020000040000fa
:040384006011000004
:020000040000fa
:040388006011000000
:020000040000fa
:04038c0060110000fc
:020000040000fa
:0403900060110000f8
:020000040000fa
:0403940060110000f4
:020000040000fa
:0403980060110000f0
:020000040000fa
:04039c0060110000ec
:020000040000fa
:10040000b022ef00b222ef004300dd00514880002f
:100410000100400000004000e1572b00e10078009f
:10042000c11588002069ef000192200091407800fa
:1004300030922000014878003192200091407800ed
:1004400040922000014878004192200091407800bd
:1004500020922000014878002192200091407800ed
:1004600010922000014878008f20a9008f00a90079
:100470009f00a800b1e2a800b342a8000000060057
:100480008215800091158000b022ef00b222ef00ab
:100490002069ef00039220009341780034922000fd
:1004a000034a780033922000934178004492200060
:1004b000034a780043922000934178002492200060
:1004c000034a780023922000934178001492200080
:1004d000034a78004300dd005348800003004000d9
:1004e00000004000e3572b00e3017800c3158800ab
:1004f0008215880091158800000006002069ef0031
:10050000019220009140780030922000014878004c
:1005100031922000914078004092200001487800fc
:1005200041922000914078002092200001487800fc
:10053000219220009140780010922000014878001c
:1005400000000600809fbe00821f78008f20a90057
:1005500022c9bf002149e3000900320022c9bf00bf
:100560008080fb0042192300e2c078008180fb00fc
:10057000a11588000040e80022e9b700010037001b
:100580009f20a9004f0178004f00be0000400600e8
:100590003600f800809fbe00829fbe00849fbe0090
:1005a000869fbe00889fbe000804200049292300c2
:1005b000b11580008f00a90062498000020064002c
:1005c00002003a00e2cf500003003a0001407800f8
:1005d0005029070009003700edcf500002003a0013
:1005e0002069ec008a20a80024c9bf000081fb001c
:1005f000817479000040e80024e9b700b202ab0042
:10060000ebff3a00b222a9004f04be004f03be0028
:100610004f02be004f01be004f00be003600f90081
:100620000040060024c9bf0023c9b6000080fb00bb
:100630000000ea004f00de000000060020c9bf00f5
:100640000000060023c9bf008080fb004229230070
:10065000e2c078000040e80023e9b700edcf500089
:1006600001003a002069ed0001407800000006001a
:1006700011922000914078000181fb004319230072
:10068000807179008140e8000141780010922000db
:10069000024878009f20ab0005003a0022c9bf0045
:1006a0002149e300020032009f20a8008f20a8000b
:1006b00000000600881f7800000478002049e2004e
:1006c00007003200dfff0700ed4f5000040032004a
:1006d000ea4f5000fbff3200005c7800f9ff370062
:1006e000004ceb004f04780000000600881f7800e3
:1006f00000047800184078000004e0000400320094
:10070000dbff0700584078000004e000fcff3a00df
:100710004f04780000000600889fbe008004780027
:10072000010478000800e00004003200394078003d
:10073000cfff07000804e900fcff3a004f04be00a9
:1007400000000600d0c0b300c9ff0700a0c0b3007e
:08075000c7ff070000000600ce
:020000040000fa
:10080000889fbe008a9fbe008c9fbe008e1f78000e
:100810000000220060168800f0bf25004016880006
:10082000ce22ef00f00320001027880000012000f6
:1008300060178800a0fe2f004017880020002000cd
:1008400070178800ea24ef0044a7a80010002000d9
:10085000a20920008107200033742000814978001c
:1008600082497800804978007205200061042000e8
:1008700023742000814978008249780080497800fb
:100880004207ab00feff3a0000022000123a80004f
:1008900082006000fdff32005420ef0000102000b5
:1008a0009080ba00411089001000ba0050108900f1
:1008b00041108100800f2000808f500082003200a4
:1008c0002274200012417800f20bb2006004200074
:1008d0007105200023742000804978008149780048
:1008e00082497800f20f2c0013358000030261006a
:1008f0000360200084817100133588003436800045
:100900000401610003c02100828171003336880038
:1009100022742000124178000264a0000281fb00d2
:10092000237420008049780081497800824978004a
:100930005022ef005222ef005062a8002002200057
:10094000c01288008e60a9008e40a9009e60a90098
:100950009e40a90051e2a8005342a8005500200083
:1009600002202000eb072000f6c4b3004ac5b30004
:1009700029c4b300f80f2000b70f200091128000a7
:1009800001006100fdff3a00ab1288008000eb001f
:100990000082eb003e0020008001eb004d002000b3
:1009a0002c002000290037005202ab002900320041
:1009b000b0128000e28f50001500320005003e00aa
:1009c0000100e00008003200e18f50001e003a00f4
:1009d0000a003700e38f500012003200e48f50000d
:1009e00019003a0014003700894068008180fb003c
:1009f0008100e900cf08de00140037008c00780089
:100a0000864f500011003200830078000f0037003d
:100a10008e007800864f50000c0032008300780072
:100a20000a0037008d0078008a4f5000070032001e
:100a30008300780005003700ea4f500003013200c0
:100a400083007800010037008300780004007800fc
:100a5000d5ff37000000e900d3ff3a0040108100c5
:100a6000880f50000400320040108100870f5000b2
:100a7000010036008502e900601780006100600017
:100a80000000a200611780000100a1008100700039
:100a9000611788000500e000b8ff3a00501081009f
:100aa0000000e900e30f400003003e005610810003
:100ab000064001000400370041108100f00f2000c3
:100ac000808f5000540232002274200012417800be
:100ad000f20bb20060042000710520002374200096
:100ae00080497800814978008249780002fc2f0013
:100af0004435800084016100e300b3004335880081
:100b000055368000050161000230a0005236880091
:100b1000f30f2c00e6368000868161000270200011
:100b200003017100e236880022742000124178002f
:100b30000264a0000281fb00237420008049780039
:100b40008149780082497800400120000012880025
:100b5000f0072000101288001000200020128800ea
:100b60008540a9009540a90041e2a800400022006c
:100b70000008eb0030107800cda2a800010820008a
:100b8000000220000100370042128000071280009e
:100b900007816000fcff320008128000080160003d
:100ba000f9ff320090002000cda2a9000000e9006a
:100bb000fdff3a0050002000401288007b004000fa
:100bc0000912800089006000fdff3a004012800099
:100bd0000001eb0001022000421288000b1280008d
:100be0000b806000fdff3a004802ab00faff3a00bc
:100bf000cda2a80090002000cda2a9000000e9002d
:100c0000fdff3a0030002000401288007d004000c7
:100c10000212800082006000fdff3a004012800056
:100c20004822ef00000220000312800083006000d1
:100c3000fdff3a00401280004822ef000002200031
:100c40000412800084006000fdff3a004012800022
:100c50004822ef000002200005128000850060009d
:100c6000fdff3a00401280004822ef004822ef00ca
:100c70000040eb0002022000040022008001eb0093
:100c80000612800086006100fdff3a0045128000d8
:100c90008080fb0005f27800431288000040e800e5
:100ca000e34f5000f6ff3600000022001001be00a6
:100cb0008301d1000281d3000288be00e40040001d
:100cc0000005780068014000000220000cc02f00e1
:100cd000fdff2f001b0024000182e800e681400098
:100ce0002e042400530037000610200082037800f1
:100cf0000004eb000912800089026000fdff3a0049
:100d000045128000855b7800481288000603e900e0
:100d1000f8ff3a0031034600a1834e00f8bf2000df
:100d200009002000880f5300898f5b003d003600ca
:100d30009102780005037800f63fb20013003a00f4
:100d40000e3b880094047800a9028800860abb0044
:100d50000500fc0055052000353b8800a50a200051
:100d6000353b880061e7a80000000000000000009b
:100d700065178000e18262000500a200661780000e
:100d80000600a10006837200661788000504200093
:100d90009104780009037800820378000b3b8800f7
:100da00014047800a80288000800e0000d003a0052
:100db00008102000888f54000a003a0012047800be
:100dc000781089000089eb0093047800691089008d
:100dd00049108100880f2000888f540001003200e4
:100de0008089eb000784e800170bbb0088037800bc
:100df000378bbb000683e8000504e9008802780011
:100e0000f8ff3a000500fc0055052000353b88003e
:100e1000a50a2000353b880061e7a800000000001b
:100e20000000000006082000070020009108430091
:100e3000d1904b001104be00ba0f5400aa8f5c0081
:100e4000a9ff3900cda2a8005f01370030002200c1
:100e5000301089000000eb00001089008080eb005a
:100e6000711089006110890000008900c0a1200074
:100e70000110200004202000070037009912800094
:100e800089016200fdff3a000201fb00a212880006
:100e900061004000e080480095018000000178007a
:100ea00002f0a4008181d2009301880012417800f1
:100eb000950188000204e000f0ff3a0000a3200042
:100ec0000110200004202000070037009b12800042
:100ed0008b016200fdff3a000201fb00a2128800b4
:100ee00061004000e080480095018000000178002a
:100ef00002f0a4008181d2009301880012417800a1
:100f0000950188000204e000f0ff3a0060a620008e
:100f100001102000042020000700370095128000f7
:100f200085016200fdff3a000201fb00a212880069
:100f300061004000e08048009501800000017800d9
:100f400002f0a4008181d200930188001241780050
:100f5000950188000204e000f0ff3a0020a4200080
:100f600001102000042020000700370096128000a6
:100f700086016200fdff3a000201fb00a212880018
:100f800061004000e0804800950180000001780089
:100f900002f0a4008181d200930188001241780000
:100fa000950188000204e000f0ff3a0000a720004d
:100fb0000110200004202000070037009712800055
:100fc00087016200fdff3a000201fb00a2128800c7
:100fd00061004000e0804800950180000001780039
:100fe00002f0a4008181d2009301880012417800b0
:100ff000950188000204e000f0ff3a0040a52000bf
:101000000110200004202000070037009812800003
:1010100088016200fdff3a000201fb00a212880075
:1010200061004000e08048009501800000017800e8
:1010300002f0a4008181d20093018800124178005f
:10104000950188000204e000f0ff3a00c0a72000ec
:1010500001102000042020000700370099128000b2
:1010600089016200fdff3a000201fb00a212880024
:1010700061004000e0804800950180000001780098
:1010800002f0a4008181d20093018800124178000f
:10109000950188000204e000f0ff3a0000202000e3
:1010a0009b1280008b006000fdff3a00d000200002
:1010b000a0128800002020009212800082006000b0
:1010c000fdff3a00a0002000a01288000001eb0004
:1010d0008002eb00212022000900220000202000d5
:1010e000638644002e042400668444000882e900dc
:1010f0001d002400e60142000205780003003700cd
:101100008002eb00010037008002eb005202ab00ce
:101110009d003200b212800005108100e28f520063
:101120002200320005003e000500e0000800320009
:10113000e18f5200f2ff3a000e003700e38f5200b9
:1011400026003200e48f5200edff3a003c003700e9
:101150008002eb0056cab300864f5100ebff3a0005
:101160008048eb0012002000221089000210890044
:10117000e6ff3700251081000500e0000500320081
:10118000824c78000001eb00221089008002eb0005
:10119000deff370015002200824a7800220020007e
:1011a000021089008002eb00d8ff37002610810072
:1011b0003510810082727b000603e800261089004a
:1011c000914869008002eb00990f5300cfff39006e
:1011d0003200200002108900ccff3700251081006a
:1011e0003610810002f37a008002eb0005108900be
:1011f00091427800854f5100110032009712800013
:1012000007036000fdff3a0046032000a612880095
:101210009b1280000b036000fdff3a000281fb007f
:10122000a21288009612800006016000fdff3a00bd
:101230008582fb00a51288008002eb00b3ff370017
:101240009712800007016000fdff3a003203200082
:10125000a21288001c41780015cbb300854f5100c5
:10126000070032008542e800854f51001900320026
:1012700085c2e900854f5100a3ff3a0052003700b4
:101280000e3b880098057800ab02880014017800b6
:101290008002eb000509bb000500fc0052052000a0
:1012a000323b8800a20a2000323b880061e7a80098
:1012b00000000000000000009512800005016000a1
:1012c000fdff3a0052032000a21288008002eb00ca
:1012d0008eff370005042000940578000b0378008a
:1012e000870022000d3b880018017800a2028800c8
:1012f0000200e0000d003a0002102000828f55002d
:101300000a003a00970578007b108900808beb007b
:1013100013017800621089004b108100820f2000b9
:10132000828f5500010032008089eb000781e800c0
:10133000170bbb0082037800378bbb000683e800e5
:101340000501e90082027800f8ff3a000500fc0080
:1013500052052000323b8800a20a2000323b880060
:1013600061e7a80000000000000000009512800066
:1013700005016000fdff3a0062032000a212880010
:101380008002eb0061ff37000a05e9005fff3a00c9
:101390000500e00009003a00621780006101610069
:1013a0000200a200651780000500a10085027100ff
:1013b000651788008500200054ff37008502e9008a
:1013c000ec02a80051ff37005420ef003000240049
:1013d000003b880000102000711081000108bb0054
:1013e000611081000188bb000500fc005005200051
:1013f000303b8800a00a2000303b880061e7a8004d
:10140000000000000000000000002800063b8000f3
:1014100086006000fdff3a000000fe00ffff37007d
:101420000d0a0000426f00006f740000205400009d
:1014300045530000540000000d0a0000426f0000f8
:101440006f740000204c00006f61000064650000b4
:1014500072200000537400006172000074000000ec
:101460000d0a00005665000072730000696f0000ed
:101470006e3a000020200000202000002020000004
:10148000000000000d0a000042750000696c0000b9
:101490006420000044610000746500003a200000f0
:1014a00020200000000000000d0a0000427500002e
:1014b000696c000064200000546900006d65000044
:1014c0003a2000002020000000000000426f0000d1
:1014d0006f7400005f300000335200000000000015
:1014e000466500006220000031320000203200001a
:1014f0003031000037000000313100003a31000087
:10150000383a0000333700000000ff000000ff0001
:101510000000ff000000ff000000ff000000ff00cf
:101520000000ff000000ff000000ff000000ff00bf
:101530000000ff000000ff000000ff000000ff00af
:101540000000ff000000ff000000ff000000ff009f
:020000040000fa
:10179800f03fb1000180b10006003500ee030900fa
:1017a80000000000403fb1000180b100fbff3d0098
:1017b8001000b000203fb000020035000080090092
:0817c800000000000000060013
:020000040000fa
:1017d000c43507000000eb00e4350700973507002b
:0417e000ffff3700d0
:020000040000fa
:10180000ffffff00ffffff00ffffff00ffffff00e4
:10181000ffffff00ffffff00ffffff00ffffff00d4
:10182000ffffff00ffffff00ffffff00ffffff00c4
:10183000ffffff00ffffff00ffffff00ffffff00b4
:020000040000fa
:10200000af8323000eff27000e01880000000000b0
:10201000000020000000e00002003200000120006b
:102020002002880014000700a70007000000e0005d
:1020300003003a0000e526000100200002003700fe
:102040000000200001002000810f7000010032001c
:1020500014000700000020000000e0000200320031
:102060000000020000000000e80b02000000000079
:102070000040da000000fe004440a900a0852100d5
:102080000000e000030032000020200090018800e2
:102090004440a800000006008a1f78008b1f7800cb
:1020a00000000600a1028800800478000000eb0018
:1020b0001f003700e284440054a0b4009905ba0020
:1020c000e284440054a0b4009906ba00e2844400bb
:1020d00054a0b4000006eb00476fde00fd07b2001d
:1020e000ae018800636ce10003003a00eaff0700dc
:1020f0000000eb000e003700606ce10008003a00c1
:10210000004deb000a05e800020039003420ec0025
:102110000af0a0008b05e900f9ff3e00040037003b
:102120006168e100010032000086eb000b0007004f
:1021300019c7ba001905ba000e04e00003003a00fe
:102140000a00e000dbff3a0000000600fe07b200d4
:10215000ae0288008a047800f5ff37000cd0a30097
:10216000e20f4d001c00390089027800354dba009d
:102170000a05e800020039003420ec000af0a00053
:102180008b05e9000f003200254dba000a05e80072
:10219000020039003420ec000af0a0008b05e900b1
:1021a000080032000c00e0000600320015cdba0035
:1021b0000a05e800020039003420ec000af0a00013
:1021c0008b05e9008984e80054a0b4000b00e0000e
:1021d000e2ff3a00000006009902ba00055d7800af
:1021e0008b05e900f7ff3200c82ade00055d7800a4
:1021f0008b05e900f3ff32000c00e000f1ff320034
:1022000019ddba00eeff370052360400000000006e
:102210006436040000000000603604000000000086
:102220005c360400000000003c5404000000000084
:10223000ca500400000000008050040000000000ac
:102240002c520400000000003c500400000000007c
:10225000f04f040000000000944f04000000000054
:102260005a530400000000005c4f0400000000000e
:10227000224f0400000000001e5304000000000074
:10228000da4e040000000000a04e04000000000030
:102290006c4e040000000000c64c0400000000006a
:1022a0008c4d040000000000384d040000000000c8
:1022b000f44d0400000000009e1304000000000024
:1022c0000040da000000fe00000005005400f800a5
:1022d000023b8800a10288000008bb000500fc004a
:1022e00051052000313b8800a10a2000313b8800c5
:1022f00061e7a80000000000000000005400f900a1
:10230000000006000400a100010037000400a00046
:102310005400f800a102880011002400013b88004d
:10232000f10f20003208bb000400a700b2007800c3
:102330000198bb008301e900faff3a0068015100ef
:102340000400a70068015100680050001208bb009b
:10235000e2ff3700f30f20005400f800a1028800cc
:1023600031002400013b88000208bb000388bb0049
:10237000daff37005400f800003b8800d7ff370031
:102380005400f800a102880080027800620040003a
:10239000e08048003549ba003204e0000410a7008c
:1023a000100032008301e9000e0032002549ba0016
:1023b0003204e0000410a7000a0032008301e900a3
:1023c000080032000408a300eeff320015c9ba006d
:1023d0003204e0000410a700020032008301e9008b
:1023e000e8ff3a005400f900000006000900370039
:1023f00030427800b1417800834f5200040032002f
:1024000010002000060031000080eb0000000600f4
:102410000201e9000200e000f5ff3a000000eb00d5
:102420000000060080017800020037008159780022
:102430000201e9000200e000fcff3a000000060093
:10244000020037000204e0000b0032008101780036
:102450000002780030417800b14f5100f9ff32009e
:102460001000200014427800934f52000300310006
:102470000080eb00000006000000eb0000000600fa
:10248000ee874700889fbe008a9fbe008c9fbe00db
:102490008e1f7800f0b79f00010678008205780053
:1024a00000047800080578000a047800b84678002f
:1024b0000d00fb008c0007000000e000f9ff3a006f
:1024c000d0c2b30080cf56000300320000c0e90044
:1024d00080cf560002003a000a05e80001003700ec
:1024e000804678000b00e00005003500e18f5500c4
:1024f0000300320040022000808f550006003400a7
:102500006044b8000c00e000700032007fb097001b
:10251000000e78006d0037000b00e0000e00320066
:10252000f08f55001a003a0000c3b3009a4f100014
:1025300017003a001a40900081c7b300814f500045
:102540000300320081c5b300814f500010003a00f3
:102550000a85e8000e003700ab00200000c3b3007e
:102560009a4f10000a003a001a40900081c7b30049
:10257000814f5000040032008b00200081c5b30061
:10258000814f500002003a000a85e8000b0120004c
:102590000a007800000278000400780001c3b3004c
:1025a000b0cf1000fbff3200040778006044b80091
:1025b000b4b79f000d003700c1f8210081405000e2
:1025c000c1ef9f006159b9000800be0080040700f8
:1025d0004fea97000401fb00cf91de00c8b79f00cf
:1025e000d9b79f0002044000838448008e0278001f
:1025f0003e00fb0085bf9f00430007000b017800f1
:1026000080007800c0f821003f0207008fba9700d1
:102610000000e000e8ff3a003fb29700850f550048
:1026200005003a006044b8000c00e00027003200ca
:10263000ffb29700240037000482520010fb2100f3
:1026400060c07d000000fb00000252001700330054
:1026500011003a004fe997000200fb00cf80de0036
:102660000000540081805c00800f5400818f5c006a
:10267000090039006159b90085bf9f004104070076
:102680008fba97004fb19700dfb19700820f5000cb
:10269000838f58000500320020022000c0ff880010
:1026a0000084eb008084eb0005003700d0c2b3004b
:1026b00080cf560002003a0060041400e0841c0041
:1026c0000c00e00001003200050e78000800be009a
:1026d0004f0778004f06be004f05be004f04be00f6
:1026e000ef00b100000006006900e10004003500c1
:1026f0006d00e100030034000002b100010032006f
:102700000000050010000500800078001104b100f1
:10271000030035009101b10001003c000050a00011
:1027200000000600d0ff80000000e0000100320041
:102730000000010080ff210000000600881f7800d3
:102740000204780008017800f90107000800400041
:102750004f047800000006000000fa00881f78008f
:1027600000047800ea8157003fb99700880078009c
:10277000e0392100070007000000e00002003500fa
:102780008040eb00017478004f0478000080fa006c
:10279000000006006200fa00889fbe008a1f7800d1
:1027a0000005780081047800020478008300780036
:1027b00080f92f000f004000e10307009a979f0067
:1027c000a9979f000000eb00b09f9f001885fb00b9
:1027d0008a04fb000a05ea004f55de005002200083
:1027e000808f54000d003200e10f55000b003a00bd
:1027f0000a017800880078002f9097009f91970039
:1028000003000100a0979f000000e0008e0032004e
:102810003f9897000000e800b09f9f000a04440022
:1028200050022000808f5400040032000900e000b4
:10283000e6ff3a003f989700840037000000eb0065
:10284000909f9f00809f9f00f0979f00e0979f00c0
:10285000d0979f00c0979f00070037004183230057
:1028600001005000000040008182230061007800d8
:10287000df98970001007000d09f9f0088047800c7
:1028800009047800384578008a00fb004083230063
:10289000ae0107000000e000f0ff3a00a1c2b30063
:1028a000814f55000e003a00cf8897000180e90063
:1028b000c08f9f0010007800c09f9f000000e000c4
:1028c00005003d000000ea00c09f9f005f98970050
:1028d0000020a000d09f9f000904e8000f003700ef
:1028e000c09f9f000000eb0005003700f2ff2700ab
:1028f000820f5000020032006a01b90002804000dd
:102900000904780088047800b900fb000103b100d5
:10291000e98f5000f5ff3600c09f9f00e0c2b30072
:10292000984f1000020032000080eb0019003700c1
:10293000a0c2b300d84f100007003a00cf8897001c
:102940000180e900c08f9f0010007800a09f9f00c9
:102950000804e800100037000000eb00a09f9f0073
:102960008800780005003700f3ff2700830f500030
:10297000020032006a02b90004004100010478003c
:10298000880078003101fb000203b100e90f51001b
:10299000f5ff3600a09f9f00984478008900fb0057
:1029a00000822300690107000000e00002003200fd
:1029b0000804e800010037008044eb00c97f9f0055
:1029c00080c6b30080cf540004003a0098cf1400b2
:1029d0000a003a006640500006003700c0c6b30047
:1029e00080cf540005003a0098cf140003003a004d
:1029f00065404000c07f9f000804e8001801fb000c
:102a0000e3fb2f008f81410081f92f008f80400070
:102a1000a0f92f000f004000100007000000e000a8
:102a200009003a00e1fb2f008f804000a0f92f0041
:102a30000f004000860207000000e00002003500a1
:102a40000804e80061ff37000080eb004f057800c4
:102a50004f04be000080fa0000000600889fbe0000
:102a60008a1f780000047800e0c6b300804f510050
:102a7000c100320015003c006b405000804f5100f7
:102a8000240032000a003c0070405000804f51008a
:102a9000fa00320065404000804f5100680032006b
:102aa00050c2b300804f51000b013a0007013700bc
:102ab00040c6b300804f51001b003200654040000b
:102ac000804f510004013a001700370030c7b300af
:102ad000804f5100e900320007003c006440500084
:102ae000804f5100560032000040e800804f5100f6
:102af000f9003a00d300370050c7b300804f5100af
:102b00004f00320063404000804f5100f2003a0015
:102b10004b0037001181e9008208780078009000ae
:102b200012417800ea00370028609000c4c6b30064
:102b3000844f500007003a001102780064005200f0
:102b4000800878001002be004fabde0086037800dc
:102b50001100370014c7b300844f50000300320047
:102b6000a4c6b300844f500006003a00110278005a
:102b700068005200800878003002be002003be00ca
:102b8000050037001180e900800878001002780005
:102b9000cfa2de00612bb900049cbe000694be00eb
:102ba0002860900081c6b300814f50000d003200b4
:102bb00021c6b300814f500004003a000402fb001c
:102bc000cfa2de00612bb9000800370041c7b30077
:102bd000814f500003003200e6c04000814f50009a
:102be00004003a00cfa2de00612bb900049cbe00b5
:102bf0000694be003802be002803be007800900094
:102c0000d1c2b300e00f5200e08f5a00e00f5b002a
:102c1000e08f5b0008003500881090000118a300c9
:102c200002003200b1c2b300030037000108a30064
:102c30004c00320001c2b3008171780047003700b8
:102c400028609000c4c6b300844f500006003a00cc
:102c50001102780064005200800878001002be0063
:102c60006033b8001100370014c7b300844f500020
:102c700003003200a4c6b300844f500006003a009f
:102c80001102780068005200800878003002be000f
:102c90002003be00050037001180e900800878009d
:102ca000100278008002eb006033b800049cbe0084
:102cb0000694be002860900081c6b300814f50008a
:102cc0000d00320021c6b300814f500004003a00cd
:102cd0000482fb008002eb006033b800080037007c
:102ce00041c7b300814f500003003200e6c04000ee
:102cf000814f500004003a008002eb006033b800be
:102d0000049cbe000694be00081090000038a3008a
:102d1000140032003802be002803be00e00f52004b
:102d2000e08f5a00e00f5b00e08f5b000d00320087
:102d300080c7b300804f51000300320080c5b3004c
:102d4000804f510007003a007800900001c3b300a3
:102d5000817178000000e800827178000000e800ce
:102d6000700498007800900080814100630498000e
:102d7000824078003e00370028619000c3c6b3004f
:102d80001180e900834f5100220032000a003c000c
:102d9000e4c15100834f51002500320083c1e80097
:102da000834f510013003200e8c15100834f51009e
:102db0001e003a000a00370043c7b300834f51009a
:102dc0001b003200e6c14100834f51001800320061
:102dd000e9c15100834f510014003a00050037004b
:102de0008008780010007800485c9000084878005f
:102df000410037008008780010007800680a9000d1
:102e0000cfa2de00612bb9000498be000690be0080
:102e100039003700800878001000780068099000b9
:102e2000cf91de000288be00330037001180e90038
:102e30008008780010007800680c9000080878007e
:102e40002d0037001180e90080087800100278001a
:102e5000cfa2de00612bb900049cbe000694be0028
:102e600078009000808141006304980081c7b3001e
:102e700008007800470007001f0037001180e900b4
:102e800080087800100578006a049800d80c90003b
:102e90000900e00004003d000a0078003700070048
:102ea0008004780007003700090178008000eb00fb
:102eb0000a007800140007000000e0000100320062
:102ec0008a045000190c98000b003700780090001d
:102ed0008271780006003700780090008081410000
:102ee0000204e00001003a0052c2b30082497800b7
:102ef0000000e800700498000000eb004f05780027
:102f00004f04be000000060003003700b0cf1000e1
:102f1000050032000201e900800178000200e000b3
:102f2000faff3a00000005000300780000000600e8
:102f30008001780002003700b15978000201e900f1
:102f40000200e000fcff3a0000000600020037002b
:102f50000304e0000600320000017800020078005f
:102f6000b041780081cf5100f9ff3a0001003700ed
:102f70000001eb00020078000000060080007800ed
:102f8000010178003104e000fdff3a00000051002b
:102f900000000600fc874700889fbe008a9fbe0095
:102fa0008c9fbe008e1f78000006780080c5b3009d
:102fb00080cf50000a0032007740400080cf5000a0
:102fc0000a0032006940400080cf50000b00320000
:102fd00070fe210080bf9f00ae0020000a00370075
:102fe00062fd210082bf9f000600370073fe2100b2
:102ff00083bf9f008e0020000300370074fe210075
:1030000084bf9f000e0120003c02be002c03be00c6
:103010000605be000404be0040c6b30080cf5000c9
:10302000030032006540400080cf50000b003a00a2
:10303000e00f5200e08f5a00e00f5b00e08f5b0072
:1030400006003d006000b8006011b80004045000a4
:10305000858458000605590087855900e80f5700f8
:103060000400320040002000f00f570038003a0002
:103070000100370030002000e00f5400e08f5c00ba
:10308000e00f5d00e08f5d0004003a00dc08900076
:103090008d0120000100e000060032008e00e900f2
:1030a000888060008fba9700e5c07800f1ef9f003c
:1030b0007d012000800078008100e90005003300d8
:1030c0008b05d1000a85d3008984d3000884d300fe
:1030d000f9ff3700089ebe000a96be0012003700b6
:1030e0008d06e9008e00e900848060000fb997002a
:1030f000e2c1780082fd2f000f01410003f17e0044
:10310000800078008100e900050033008783d1004a
:103110000683d3008582d3000482d300f9ff3700f1
:10312000049ebe000696be003c02be002c03be00fc
:10313000e00f5200e08f5a00e00f5b00e08f5b0071
:103140008b0034000d00e000e5ff3c0088003700f4
:103150002c60900081c6b300814f50000b003200fc
:1031600006003c000004e00008003200e6c0500009
:10317000814f50004e003a0004003700c1c6b30032
:10318000814f50004a003a00210037000800e0005b
:1031900004003a005c0890008d0120000000e0006f
:1031a00006003200110009000e84d8000fb9970004
:1031b000e2c07800f1ef9f007d01200011000900be
:1031c0000e84d8000a003700110009000e04d80050
:1031d0008d06e9000e81b900020454008fb89700f3
:1031e00061417c0081fd2f008f80400082f07e00d5
:1031f000000478000800e000020032000d00e0004a
:10320000f1ff3c00cfc4de00614db900250037005e
:10321000e00f5400e08f5c0004003a005c0890006e
:103220008d0120000000e000070032006171b9004c
:103230000800be00630107008fb99700e3417800e2
:10324000f3ef9f007d0120006171b9000800be000e
:103250004c0107000b0037006171b9000800be0087
:10326000390107008d06e90000f1b900020454009d
:103270000fba9700e4427c0084fd2f000f02420049
:1032800005f27e000004be00e00f5000e08f580001
:10329000020032000d00e000efff3c004fcdde00e9
:1032a0008a057800089ebe000a96be0030003700ee
:1032b000e00f5400e08f5c00e00f5d00e08f5d00e8
:1032c00004003a005c0890008d0120000000e0003e
:1032d000090032006172b900612bb9000800be001c
:1032e0000a01be00e00107000fba970064427800af
:1032f000f4ef9f007d0120006172b900612bb900dd
:103300000800be000a01be00d00107000d00370012
:103310006172b900612bb9000800be000a01be004d
:10332000d50107008d06e90000f2b900040454003d
:103330008fba970065427c0085fd2f008f82420086
:1033400084f27e00009ebe000296be003c04be00d9
:103350002c05be00e00f5400e08f5c00e00f5d0024
:10336000e08f5d00020034000d00e000e8ff3c004b
:10337000e80f570010003a000c1090000038a3002e
:103380000d003200f78f560006003e0085fd2f002d
:103390008f824200e5c07e0000c3b30080cf5000a2
:1033a000050032008d06e90002c3b30081fd2f0045
:1033b0008f80400082f07e0078811600120e980007
:1033c0006c00900083fd2f008f8141008d804100b3
:1033d000d7fe07001c089000dc089000810f500009
:1033e00006003d0000805000000e98000c10900078
:1033f0000040a100001698000f0037000100e00017
:103400000d003d008c109000f4806000f08f5000a3
:1034100009003a007c099000fc00900081005100f6
:103420000c09900082805000008050004240a900aa
:1034300001003400000e98004f0778004f06be00d0
:103440004f05be004f04be00cf01b10000000600d2
:103450000400fa00889fbe008a9fbe008c1f78007f
:103460000004780001067800f80d900078009000c4
:103470008085550008089000808555001808900048
:1034800080855500280890008085550038089000f8
:103490008085550048089000808555000002220074
:1034a00090bf9f0000032300a0bf9f000810900062
:1034b0000028a30015003a000b00e00013003400c0
:1034c0000b0578008a047800e20f550001003600f1
:1034d00029002000c801900009017800ee80570003
:1034e0005800900003000100500498000000e00024
:1034f0008c0032006808900009004000600c9800c1
:10350000090555004240a900eeff3c0078019000fb
:103510000200e0000c003400c80190008c0078002c
:103520005800900003000100500498008080eb00d8
:103530000000e0007c003200e80890007800900075
:1035400000804000600c9800880c90000900e000aa
:103550001100340009057800e28f540001003600a4
:103560002a002000c80190000a017800ec80570072
:103570005800900003000100500498000000e00093
:1035800068003200680890000a004000600c980053
:103590008a845400edff3700180990000200e00013
:1035a0000c003400c8019000e80090005800900022
:1035b00003000100500498008080eb000000e00050
:1035c00059003200e8089000180890000080400080
:1035d000600c9800a80c90000900e0001100340075
:1035e00009057800e28f5400010036002a0020000f
:1035f000c80190000a017800ec8057005800900044
:1036000003000100500498000000e0004500320073
:10361000680890000a004000600c98008a845400fa
:10362000edff3700380990000200e0000e00340082
:10363000e80090001808900080804000c8019000c9
:103640005800900003000100500498008080eb00b7
:103650000000e00034003200e808900038089000d4
:1036600000804000600c9800c80c90000900e00049
:103670001100340009057800e28f54000100360083
:103680002a002000c80190000a017800ec80570051
:103690005800900003000100500498000000e00072
:1036a00020003200680890000a004000600c98007a
:1036b0008a845400edff3700081090008000eb0072
:1036c0000028a300180032000b00e00016003400b0
:1036d0008b04780009057800e28f54000100360061
:1036e0002a002000c80190000a017800ee805700ef
:1036f0005800900003000100500498000000e00012
:1037000008003200680890000a004000600c980031
:103710008a8454004240a900eeff3c008000eb0088
:10372000010037008080eb00010078004f06780030
:103730004f05be004f04be000080fa0000000600e6
:103740000108780000000600839f68000100e00087
:1037500002003d0060001000e08018000300e0005f
:1037600002003d0060011100e08119000500070022
:103770004f00e00002003b0060001000e0801800f5
:10378000000006006022b800060220000000d00001
:103790008180d2000482d2008582d2000000a00085
:1037a0000202520083825a000300310002024200ea
:1037b00083824a000000a1000603e900f3ff3a00fb
:1037c00000000600efff07000400be000000060036
:1037d000020ab900001bb9000200b80081004200d3
:1037e0008100430000000600889fbe008a9fbe0043
:1037f00030044200b0844a0030054b0090854b00f5
:103800006000b1000898be000a90be000440e100cc
:1038100005c8e10006d0e10007d8e1000200310050
:10382000680040001008e8004f05be004f04be00cd
:1038300000000600889fbe008a9fbe003004be00c4
:103840002005be000418540005985c0006185d00b1
:1038500007985d00110020000440e10005c8e10068
:1038600006d0e10007d8e100010039008000eb003c
:10387000108810004f05be004f04be000000060077
:103880001200fa00889fbe008a9fbe008c9fbe0077
:10389000e0b79f00f1b79f0082bf9f0093bf9f00da
:1038a0000605be000404be000000eb00d0b79f0078
:1038b000c0b79f00b0b79f00a0b79f0090b79f0010
:1038c0000006eb005fb19700cfb097008201410086
:1038d0003fb097000200e00004003d003700070001
:1038e0007e805700c0ff0700030037003300070049
:1038f0007e805700cfff0700dfb697000d00e00085
:103900000c0035006fb29700ffb297000fbb970015
:103910009fbb970010002000010020006011b8003c
:1039200000027200818272000203730083837300bd
:103930001b0007000c06e80001042000810f560060
:10394000e0ff3a000d00e00004003d000802be0068
:103950000a03be007e805700a3ff07005fa8970000
:103960000000e00005003a001fb29700afb29700d8
:103970003fb39700cfb39700090007006fb09700df
:10398000ffb097000fb997009fb997004f06be0090
:103990004f05be004f04be000080fa000000060084
:1039a0000100070000000600a4b79f00b5b79f0004
:1039b000c6b79f00d7b79f00000006004f09de0082
:1039c00082817100b3b79f004f01de00818040000b
:1039d00082807000a1b79f008fb097004f09de0072
:1039e000000040000200700090b79f007fa8970081
:1039f0004f01de00818040008280700081b79f000f
:103a00000d0007004f3ade00000040000400700087
:103a1000f0af9f00080007000402420085824a00c0
:103a200006034b0087834b00dfff07000802be0040
:103a30000a03be00000006002fb29700bfb2970035
:103a40004fb39700dfb3970000000600881f78008f
:103a500018002000881f780089ff07008f87e90081
:103a60004f04780000000600801feb0084ff070071
:103a70008f87e90000000600889fbe008a9fbe0075
:103a8000e00f5000e08f5800e00f5900e08f590020
:103a90000c003d006044b8006055b80000005400c0
:103aa00081805c0002015d0083815d0018002000c0
:103ab0001500070008003d00180007000004eb0097
:103ac000050037000004eb000f00070002003d0076
:103ad0001200070018002000dcff07000800e000cb
:103ae000060032006022b8006033b80000005200c7
:103af00081805a0002015b0083815b004f05be009c
:103b00004f04be0000000600e00f5200e08f5a0094
:103b1000e00f5b00e08f5b00000006006044b8002f
:103b20006055b8000402540085825c0006035d0005
:103b300087835d0000000600889fbe008a9fbe004c
:103b40008c1f7800e00f5000e08f5800e00f590004
:103b5000e08f59000d003d006044b8006055b8008a
:103b60000000540081805c0002015d0083815d00e3
:103b70001c0020000820e10009a8e1000ab0e100d3
:103b80000bb8e1000d003d00080037000006eb0017
:103b9000e00f5200e08f5a00e00f5b00e08f5b0007
:103ba00006003d006044b8006055b80004025400af
:103bb00085825c0006035d0087835d00aaff070025
:103bc0000c00e000060032006022b8006033b8004c
:103bd0000000520081805a0002015b0083815b007b
:103be0004f0678004f05be004f04be0000000600df
:020000040000fa
:103bf000536d0000733a0000205400004350000051
:103c0000206e0000722000002575000000540000a6
:103c1000757200006e200000475300004d20000028
:103c2000496e00007465000072720000757000003b
:103c3000742000004f66000066000000547500000c
:103c4000726e000020470000534d00002049000024
:103c50006e740000657200007275000070740000e0
:103c6000204f00006e000000475300004d20000070
:103c7000506f000077650000722000004f66000062
:103c800066000000475300004d200000506f000008
:103c900077650000722000004f6e000000470000b2
:103ca000534d0000205000006f7700006572000047
:103cb000206b000065790000204f00006666000060
:103cc00000470000534d0000205000006f770000b7
:103cd00065720000206b000065790000204f000035
:103ce0006e00000053650000742000004753000080
:103cf0004d2000006d6f0000647500006c650000d1
:103d0000207400006f2000006661000063740000f2
:103d10006f72000079200000736500007469000074
:103d20006e67000073200000284100005426000048
:103d3000462900000041000054260000463b0000d8
:103d4000265700000d0a000000530000656e0000b9
:103d500064200000746f000020470000534d0000f5
:103d60003a0000002b2b00002b00000047530000fe
:103d70004d200000475300004d5f000044540000f8
:103d80005220000073690000676e0000616c000043
:103d900020480000696700006800000047530000e9
:103da0004d200000475300004d5f000044540000c8
:103db0005220000073690000676e0000616c000013
:103dc000204c00006f77000000470000534d0000ba
:103dd000204d0000616e0000756100006c20000045
:103de0004d6f00006465000000470000534d000067
:103df00020410000757400006f6d000061740000c8
:103e000069630000204d00006f6400006500000041
:103e1000475300004d2000004f660000666c000014
:103e2000696e0000652000004d6f000064650000b1
:103e300000470000534d0000204f00006e6c000052
:103e4000696e000065200000204d00006f640000d6
:103e500065000000427200006f6b0000656e00009c
:103e600020540000637000003a20000074790000c4
:103e7000706500005f2500003032000058680000c7
:103e80002c2000006c6500006e5f000025750000ae
:103e90002c20000063720000635f000025300000ea
:103ea00032580000682c000020720000635f0000a0
:103eb00063720000635f000025300000325800008c
:103ec00068000000536500006e640000205400008c
:103ed00063700000202d0000205400007970000065
:103ee000653a00002025000030320000582c000008
:103ef00020490000443a0000202500003034000032
:103f0000582c0000204c0000656e00003a20000094
:103f10002575000000410000542b000049500000ae
:103f2000523d000039360000303000003b260000d2
:103f3000570d00000a000000556e0000636e00007f
:103f40006f7700006e200000726500007370000043
:103f50006f6e0000736500003a00000054630000bb
:103f60007020000050610000636b00006574000069
:103f7000202d00002054000079700000653a0000f8
:103f80002025000030320000582c0000204900009d
:103f9000443a00002025000030340000582c000076
:103fa000204c0000656e00003a20000025640000ef
:103fb00000450000727200006f7200003a2000009d
:103fc000546300007020000050610000636b00002b
:103fd0006574000020520000656300006569000000
:103fe0007665000020540000696d0000656f0000d8
:103ff0007574000020210000212100000053000002
:104000007461000074650000206e0000723a0000c8
:1040100020250000642c0000204600006c61000098
:10402000677300003a20000030780000253000005f
:1040300034580000005300007461000074650000f3
:10404000206e0000723a000020250000642c000061
:10405000204600006c610000677300003a200000f9
:10406000307800002530000034580000202d00007a
:1040700020540000696d0000654f00007574000059
:1040800020450000727200006f72000020210000c5
:104090002121000000410000542b0000434d00008e
:1040a000475200003d0000003b2b0000434d000044
:1040b000474400003d000000536500006e640000ae
:1040c00020470000505200005320000050610000c3
:1040d000636b0000657400003a2000005479000012
:1040e000706500005f25000030320000582c000091
:1040f000204c0000656e00005f250000303300009a
:10410000752c0000204e0000725f0000253000007a
:104110003458000000470000736d0000202d00009f
:104120003e20000054430000502000004461000085
:104130007461000020730000656e000064000000e0
:10414000477300006d2000002d3e00002054000049
:1041500043500000204f00004b200000736500001a
:104160006e64000000410000540d00000a000000d1
:10417000415400002b430000535100000d0a000081
:1041800000410000542b000043520000454700004e
:104190003f0d00000a0000004353000051200000c2
:1041a0003d200000257500002c200000466c00001a
:1041b00061670000733a000020300000782500009d
:1041c0003034000058000000415400004f0d000042
:1041d0000a000000415400004f200000636f0000ff
:1041e0006d6d0000616e0000640d00000a000000ab
:1041f000415400002b43000049500000534500008b
:104200004e4400003d250000750d00000a0000002e
:10421000477300006d2000004461000074610000dd
:1042200020730000656e00006420000046610000fd
:10423000696c0000757200006521000021210000fa
:1042400000470000736d0000202700003e2700009b
:10425000206e00006f740000207200006563000093
:1042600065690000766500006421000021210000de
:10427000004f00004b0d00000a00000041540000f8
:104280002b430000495000005354000041540000eb
:10429000555300000d0a000000470000736d000038
:1042a000202d00003e200000415400002b43000060
:1042b0004950000053540000415400005553000081
:1042c00000470000736d0000202b000043490000f0
:1042d000505300005441000054550000532000008a
:1042e000546900006d6500006f75000074200000c7
:1042f0002d3e000020720000657300007461000014
:1043000072740000206d00006f640000756c000086
:1043100065000000415400002b430000495000009c
:104320005354000041520000543d0000227400002c
:1043300063700000222c0000220000007065000065
:104340006c650000732e00006c6900006e6b00004d
:10435000706300002e6e00006574000000220000f3
:104360002c22000000310000303100003233000008
:10437000002200000d0a0000004300006f6e0000e4
:104380006e65000063740000206300006f6d000024
:104390006d6100006e640000204f00006b20000083
:1043a0002d3e0000207700006169000074200000ad
:1043b000636f00006e6e00006563000074690000aa
:1043c0006f6e00002039000030730000656300004c
:1043d00000410000542b00004349000050430000fe
:1043e0004c4f0000534500000d0a00000043000040
:1043f0006f6e00006e65000063740000696f00005e
:104400006e200000546900006d6500006f750000ab
:1044100074200000212100002100000047730000eb
:104420006d200000477300006d53000074610000b0
:10443000746500005f4300006f6e00006e65000051
:1044400063740000656400002e2e00002e00000042
:104450004750000052530000204300006f6e0000e0
:104460006e65000063740000696f00006e2000003c
:1044700045720000726f0000722000002d3e0000a7
:10448000207400007261000079200000746f000049
:1044900020720000656300006f6e00006e65000012
:1044a0006374000000470000736d0000205000009e
:1044b0006f770000657200002052000065730000f5
:1044c0007461000072740000203200002e30000081
:1044d000207300006563000000470000736d00005a
:1044e000205000006f77000065720000204f000030
:1044f0006e200000312e00003020000073650000a7
:1045000063000000477300006d200000506f000042
:1045100077650000722000004b65000079200000e4
:104520004f6e0000203100002e300000207300008c
:104530006563000000470000736d00002053000019
:104540007461000074750000732000004f6b000060
:1045500000470000736d0000205000006f770000de
:1045600065720000204b000065790000204f0000bc
:1045700066660000202800003220000073650000fd
:1045800063200000746900006d6500006f75000015
:104590007429000000470000736d000020520000e5
:1045a00044590000206e00006f740000207200006b
:1045b0006563000065690000766500006400000026
:1045c000477300006d20000043500000494e00007a
:1045d00020450000727200006f7200000041000070
:1045e000542b0000434400004e530000434600009b
:1045f000473d00002200000031350000392e000048
:1046000031340000382e0000363000002e32000019
:104610003000000031390000352e0000322e00003d
:10462000393600002e320000002200003b2b000033
:10463000434400004e5300004f5200004950000018
:104640003d3100003b2b000043490000504d00006d
:104650004f440000453d0000313b00002b4300006b
:1046600052450000473d0000310d00000a000000e7
:10467000477300006d200000736500007420000087
:10468000444e000053000000477300006d200000fe
:10469000444e0000532000004f6b00000047000014
:1046a000736d0000204400004e5300002073000092
:1046b00065740000757000002045000072720000f3
:1046c0006f720000202d00003e2000007265000087
:1046d0007374000061720000742000006d6f0000b0
:1046e000647500006c65000000470000736d0000f9
:1046f00020430000616c00006c5f00005265000008
:10470000616400007920000045720000726f0000b3
:1047100072200000212100002100000047730000ea
:104720006d2000002d200000736500006e64000005
:104730002041000054000000477300006d2000007d
:104740004261000075640000526100007465000061
:1047500020630000686100006e670000656400006f
:10476000207400006f200000393600003030000057
:1047700000470000736d00002042000061750000da
:10478000645200006174000065200000636800004e
:10479000616e00006765000064200000746f000017
:1047a00020310000393200003030000000470000a6
:1047b000736d00002042000061750000645200002b
:1047c000617400006520000063680000616e0000f5
:1047d0006765000064200000746f00002033000053
:1047e000383400003030000000470000736d0000d6
:1047f00020420000617500006452000061740000f6
:104800006520000063680000616e000067650000bd
:1048100064200000746f000020350000373600006f
:104820003030000000470000736d0000204200009f
:104830006175000064520000617400006520000092
:1048400063680000616e000067650000642000007e
:10485000746f00002031000031350000323000005c
:1048600030000000477300006d2000006e6f0000f4
:104870002072000065730000706f00006e7300000e
:1048800065200000667200006f6d0000206d000062
:104890006f640000756c000065200000212100009d
:1048a0002100000041540000453000003b2b000077
:1048b000434d0000454500003d3000003b2b00000b
:1048c00049460000433d0000322c0000323b00000e
:1048d0002b490000505200003d33000038340000e6
:1048e000303000003b260000443100003b26000031
:1048f000570d00000a000000477300006d20000003
:10490000736500006e640000206d00006f6400009d
:10491000756c000065200000736500007475000070
:104920007020000070610000726100006d65000081
:10493000746500007273000000470000736d000092
:10494000207300006574000075700000206f000087
:104950006b000000415400002b4300004c49000054
:10496000503d0000313b0000265700003b2b00006b
:10497000434f00004c5000003d3100003b2600003a
:10498000573b00002b4300004f500000533d0000f8
:10499000303b0000265700003b2b0000434d000039
:1049a000474600003d3100003b260000573b000019
:1049b0002b4300004e4d0000493d0000322c00000a
:1049c000312c0000302c0000302c0000303b000067
:1049d000265700003b2b00004353000041530000ca
:1049e0003d3000003b260000570d00000a0000008b
:1049f000477300006d200000736500006e640000c6
:104a0000205300004d530000207300006574000027
:104a1000757000002070000061720000616d000080
:104a200065740000657200007300000047730000a9
:104a30006d200000534d00005320000073650000fe
:104a400074750000702000006f6b000000410000d2
:104a5000542b0000434400004e5300004f5200000e
:104a6000495000003d3100003b2b0000434900004d
:104a70005053000050520000543d0000313b0000f4
:104a80002b4300004950000048450000414400000d
:104a90003d3000003b2b0000434900005046000021
:104aa0004c5000003d3000003b2b0000434900000b
:104ab0005053000052490000503d0000303b0000c0
:104ac0002b430000495000004353000047500000b2
:104ad0003d3100002c220000006900006e740000cf
:104ae000657200006e650000742e00006c6d0000a1
:104af000742e00006c760000002200003b2b0000aa
:104b0000434900005043000043460000473d000079
:104b1000332c0000322c000032350000362c00000f
:104b2000313b00002b43000049500000534300007c
:104b30004f4e0000540d00000a00000047730000b3
:104b40006d2000004750000052530000207000000c
:104b500061720000616d0000657400006572000004
:104b60007320000073650000747500007000000081
:104b7000477300006d200000677000007273000032
:104b8000207300006574000075700000206f000045
:104b90006b2000002d3e00002072000065730000b5
:104ba0007461000072740000206d00006f640000ea
:104bb000756c000065000000477300006d20000068
:104bc00067700000727300002073000065740000bd
:104bd0007570000020450000727200006f720000c6
:104be000202d00003e20000072650000737400005c
:104bf00061720000742000006d6f00006475000099
:104c00006c650000005300006d730000204e000032
:104c1000723a000020250000732000007265000039
:104c200063650000697600006564000000410000d3
:104c3000542b0000434d0000474c00000d0a0000bb
:104c4000002c000020280000534900004d200000e7
:104c50006e7500006d62000065720000293a000068
:104c600020000000756e00006b6e00006f77000082
:104c70006e2000006e7500006d620000657200001d
:104c80003a200000007500006e6b00006e6f00009f
:104c9000776e0000207300006d7300002065000037
:104ca000727200006f720000200000005374000058
:104cb00061740000652000006e7200003a20000060
:104cc000256400002c200000466c00006167000095
:104cd000733a0000203000007825000030340000d6
:104ce000582000002d200000537400006174000063
:104cf0006520000045720000726f00007220000005
:104d000021210000210000004f4b00000045000061
:104d1000525200004f520000002b0000435300008d
:104d2000513a0000200000002b43000052450000d3
:104d3000473a0000004300004f4e00004e4500007f
:104d400043540000204f00004b000000434f000080
:104d50004e4e000045430000542000004641000034
:104d6000494c0000004300004f4e00004e4500003b
:104d700043540000004100004c5200004541000037
:104d800044590000204300004f4e00004e450000f3
:104d900043540000004300004c4f00005345000006
:104da0004400000049500000204300004c4f000028
:104db0005345000000530000454e00004420000011
:104dc0004f4b00000052000044590000002b00002f
:104dd00043460000554e0000002b000043500000e9
:104de000494e00003a2000005245000041440000b6
:104df00059000000436100006c6c0000205200006c
:104e00006561000064790000005300005441000017
:104e1000544500003a200000544300005020000098
:104e2000434f00004e4e000045430000544900002f
:104e30004e470000004e00004f5200004d41000060
:104e40004c200000504f0000574500005220000049
:104e5000444f0000574e0000002b0000434d00005f
:104e6000544900003a200000002b0000434d000090
:104e7000475200003a200000002b0000434d000084
:104e8000474c00003a20000000520000494e00004c
:104e90004700000084a6000002000000000000009f
:104ea000000000000100000087a6000005000000cf
:104eb0000000000000000000020000008da60000bd
:104ec00006000000000000000000000004000000d8
:104ed00094a600000600000003000000000000008f
:104ee000040000009ba600000a000000090000006a
:104ef0000000000000080000a6a600000c00000052
:104f00000a0000000000000000000000b3a600003e
:104f1000070000000900000000000000000c000075
:104f2000bba600000f000000090000000000000008
:104f3000000c0000cba60000060000000a000000e4
:104f40000000000004000000d2a6000008000000dd
:104f50000a0000000000000000000000dba60000c6
:104f6000070000000b00000000000000000000002f
:104f7000e3a600000300000011000000f40100009f
:104f800000800000e7a600000500000011000000fe
:104f9000f401000004000000eda600000c00000079
:104fa000120000000000000000000000faa600004f
:104fb0000a000000000000000000000000400000a7
:104fc00005a70000150000000000000028230000d5
:104fd000000000001ba70000110000000d000000f1
:104fe00000000000000000002da7000007000000e6
:104ff00019000000000000000000000035a70000bc
:10500000060000001b00000000000000000000007f
:105010003da70000060000001b000000000000008b
:105020000000000045a70000040000001c00000074
:1050300000000000000000005265000073650000e1
:10504000740000005463000070000000544500002c
:10505000535400005f7300006d730000003f0000b8
:10506000000000001ca800000500000052360000ef
:1050700022a80000030000006436000026a80000fb
:1050800008000000603600002fa8000001000000aa
:105090005c36000054750000726e0000205700005e
:1050a00069660000692000006d6f000064750000f3
:1050b0006c650000204f0000666600000054000090
:1050c000757200006e2000005769000066690000dc
:1050d000206d00006f640000756c0000652000000a
:1050e0004f6e000000520000554e00002057000097
:1050f00069660000692000006d6f000064750000a3
:105100006c6500000052000045530000455400004b
:105110002057000069660000692000006d6f0000e4
:10512000647500006c6500000057000069660000af
:10513000692000004d6100006e750000616c000088
:10514000204d00006f6400006500000057690000fa
:105150006669000020410000757400006f6d00005a
:105160006174000069630000204d00006f6400005e
:10517000650000005769000066690000206d0000ae
:105180006f640000756c0000652000004261000043
:10519000756400002052000061740000652000006a
:1051a00063680000616e0000676500006420000015
:1051b000746f00002039000036300000300000001d
:1051c0005769000066690000206d00006f640000f0
:1051d000756c0000652000004261000075640000ed
:1051e0002052000061740000652000006368000028
:1051f000616e00006765000064200000746f0000ad
:10520000203100003932000030300000005700002b
:1052100069660000692000006d6f00006475000081
:105220006c650000204200006175000064200000f1
:105230005261000074650000206300006861000096
:105240006e67000065640000207400006f2000009d
:10525000333800003430000030000000576900008f
:1052600066690000206d00006f640000756c00002e
:1052700065200000426100007564000020520000bb
:10528000617400006520000063680000616e00002a
:105290006765000064200000746f00002035000086
:1052a000373600003030000000570000696600000b
:1052b000692000006d6f0000647500006c650000df
:1052c000204200006175000064200000526100006f
:1052d0007465000020630000686100006e670000d4
:1052e00065640000207400006f2000003131000070
:1052f00035320000303000000057000069660000c1
:10530000692000006d6f0000647500006c6500008e
:10531000204200006175000064200000526100001e
:105320007465000020450000727200006f7200007a
:1053300000410000542b0000435700004a41000088
:10534000503d000022000000222c0000220000003e
:10535000220d00000a00000045720000726f00007c
:10536000723a0000205400006370000020500000da
:10537000616300006b65000074200000526500004e
:105380006365000069760000652000005469000034
:105390006d6500006f750000742000002121000081
:1053a00021000000537400006174000065200000bb
:1053b0006e7200003a200000256400002c200000de
:1053c000466c000061670000733a00002030000066
:1053d00078250000303400005800000053740000ad
:1053e00061740000652000006e7200003a20000029
:1053f000256400002c200000466c0000616700005e
:10540000733a00002030000078250000303400009e
:10541000582000002d200000546900006d65000038
:105420004f7500007420000045720000726f00008c
:1054300072200000212100002100000041540000e2
:105440002b430000574a0000415000003f0d000070
:105450000a000000536500006e640000204f000049
:105460004b5f000057690000666900002050000093
:10547000616300006b65000074000000415400008f
:10548000453000000d0a000000410000542b0000d0
:10549000435700004d4f0000444500003f0d000001
:1054a0000a0000005769000066690000204d0000f6
:1054b0004f440000453a000020250000752c0000f4
:1054c000206d00007573000074200000626500000c
:1054d0002025000075000000415400002b4300000f
:1054e000574c0000415000000d0a0000005700001a
:1054f00069660000692000004163000063650000e8
:1055000073730000205000006f6900006e7400008b
:10551000204c0000697300007420000045720000f8
:10552000726f000072000000415400002b43000025
:1055300049500000534500004e4400003d25000046
:10554000640d00000a000000415400002b430000dd
:10555000574d00004f440000453d00002564000009
:105560000d0a000000530000657400002043000095
:10557000774d00006f64000065200000746f00002c
:1055800020250000750000004f6b0000202d00005a
:10559000205200006573000065740000206d00005b
:1055a0006f640000756c000065000000415400004d
:1055b0002b430000495000005354000041520000aa
:1055c000543d00002254000043500000222c0000f3
:1055d00022000000706500006c650000732e000062
:1055e0006c6900006e6b0000706300002e6e00009e
:1055f00065740000002200002c0000003130000023
:105600003132000033000000576900006669000075
:10561000204300006f6e00006e65000063740000a0
:10562000204300006f6d00006d6100006e6400009b
:10563000005700006966000069200000436f000009
:105640006e6e000065630000742000004f6b000068
:10565000202d00003e2000007761000069740000ea
:10566000206300006f6e00006e6500006374000030
:10567000696f00006e200000393000007365000083
:1056800063000000576900006669000020430000c5
:105690006f6e00006e650000637400002043000020
:1056a0006f6d00006d6100006e6400002045000019
:1056b000727200006f720000202d00003e2000007a
:1056c00074720000617900002061000066740000bf
:1056d000657200002031000030200000736500007a
:1056e0006300000053740000617400006520000036
:1056f0006e7200003a200000256400002c2000009b
:10570000466c000061670000733a00002030000022
:105710007825000030340000582000002d200000c3
:1057200053740000617400006520000045720000a1
:10573000726f000072200000212100002100000093
:105740004f4b000000450000525200004f52000035
:1057500000460000414900004c0000004e6f000070
:1057600020410000500000007265000061640000ec
:10577000790000005749000046490000204300001e
:105780004f4e00004e4500004354000045440000c9
:10579000005700004946000049200000474f000024
:1057a0005420000049500000005700004946000006
:1057b0004920000044490000534300004f4e0000c0
:1057c0004e45000043540000004300004f4e0000cf
:1057d0004e45000043540000004300004c4f0000c1
:1057e00053450000440000006c6900006e6b00002f
:1057f00020690000732000006e6f0000742000001c
:10580000766100006c6900006400000049500000ef
:1058100020450000525200004f520000005300008b
:105820005441000054550000533a0000002b000082
:105830004349000046530000523a00004150000026
:10584000495000002c220000002b000043490000ba
:1058500046530000523a0000415000004d41000004
:10586000432c0000220000002b43000049460000aa
:10587000535200003a5300005441000049500000c8
:105880002c220000002b000043490000465300007a
:10589000523a000053540000414d000041430000c3
:1058a0002c220000002b0000435700004a4100005a
:1058b000503a0000220000002b4900005044000034
:1058c0002c000000526500006376000020000000fc
:1058d0002b430000574c0000415000003a000000ec
:1058e0002b430000574d00004f440000453a000094
:1058f00000530000454e0000442000004f4b0000c4
:1059000000000000a0ab000002000000000000004a
:105910000000000001000000a3ab00000500000033
:10592000000000000000000002000000a9ab000021
:105930000400000000000000000000000200000061
:10594000aeab0000050000000600000000000000f3
:1059500002000000b4ab00000500000004000000dd
:105960000000000000c00000baab00000e00000004
:1059700000000000c800000000e00000c9ab00000b
:105980000b000000000000000000000000f000001c
:10599000d5ab00000f0000000e000000000000006a
:1059a00000000000e5ab0000070000000000000060
:1059b0000000000000f80000edab00000600000051
:1059c000100000000000000000000000f4ab000028
:1059d00011000000100000000000000000000000a6
:1059e00006ac0000080000000000000000000000fd
:1059f000000000000fac00000700000000000000e5
:105a0000000000000000000017ac00000d000000c6
:105a100000000000000000000000000025ac0000b5
:105a20000e00000000000000000000000000000068
:105a300034ac00000e000000000000000000000078
:105a40000000000043ac00000f0000000000000058
:105a5000000000000000000053ac0000080000003f
:105a60000900000000000000000000005cac000025
:105a70000500000000000000000000000000000021
:105a800062ac000005000000000000000000000003
:105a90000000000068ac00000700000000000000eb
:105aa000000000000400000070ac000008000000ce
:105ab00000000000000000000400000079ac0000bd
:105ac000070000000b0000000000000004000000c0
:105ad000506500006c6500007300000000000000cd
:105ae00000000000000000000000000000000000b6
:105af00000000000000000000000000000000000a6
:105b00000000000000000000000000000000000095
:105b10000000000000000000000000000000000085
:105b20000000000000000000000000000000000075
:105b30000000000000000000000000000000000065
:105b400000000000000000006d6f00007573000091
:105b500065660000616d0000696c0000790000005e
:105b60000000000000000000000000000000000035
:105b70000000000000000000000000000000000025
:105b80000000000000000000000000000000000015
:105b90000000000000000000000000000000000005
:105ba00000000000000000000000000000000000f5
:105bb00000000000000000000000000000000000e5
:105bc00000000000000000000000000000000000d5
:105bd0004d6100007a610000697300000000000060
:105be00000000000000000000000000000000000b5
:105bf00000000000000000000000000000000000a5
:105c00000000000000000000000000000000000094
:105c10000000000000000000000000000000000084
:105c20000000000000000000000000000000000074
:105c30000000000000000000000000000000000064
:105c4000000000000000000073610000756c00009f
:105c50006365000072690000697400006537000028
:105c60000000000000000000000000000000000034
:105c70000000000000000000000000000000000024
:105c80000000000000000000000000000000000014
:105c90000000000000000000000000000000000004
:105ca00000000000000000000000000000000000f4
:105cb00000000000000000000000000000000000e4
:105cc00000000000000000000000000000000000d4
:105cd000536b000061620000617200007a6900008d
:105ce00000000000000000000000000000000000b4
:105cf00000000000000000000000000000000000a4
:105d00000000000000000000000000000000000093
:105d10000000000000000000000000000000000083
:105d20000000000000000000000000000000000073
:105d30000000000000000000000000000000000063
:105d40000000000000000000000000000000000053
:105d50000000000000000000000000000000000043
:105d60000000000000000000000000000000000033
:105d70000000000000000000000000000000000023
:105d80000000000000000000000000000000000013
:105d90000000000000000000000000000000000003
:105da00000000000000000000000000000000000f3
:105db00000000000000000000000000000000000e3
:105dc00000000000000000000000000000000000d3
:105dd000446f0000766d0000616e000069000000f5
:105de00000000000000000000000000000000000b3
:105df00000000000000000000000000000000000a3
:105e00000000000000000000000000000000000092
:105e10000000000000000000000000000000000082
:105e20000000000000000000000000000000000072
:105e30000000000000000000000000000000000062
:105e400000000000000000006e6f00006c690000a0
:105e50006b7400006176000061000000000000002b
:105e60000000000000000000000000000000000032
:105e70000000000000000000000000000000000022
:105e80000000000000000000000000000000000012
:105e90000000000000000000000000000000000002
:105ea00000000000000000000000000000000000f2
:105eb00000000000000000000000000000000000e2
:105ec00000000000000000000000000000000000d2
:105ed000424d00005720000045340000360000000d
:105ee00000000000000000000000000000000000b2
:105ef00000000000000000000000000000000000a2
